:020000040000FA
:1000000010020020D5000000EF000000AD05000048
:1000100000000000000000000000000000000000E0
:10002000000000000000000000000000F3000000DD
:100030000000000000000000F50000005306000072
:10004000050600000D060000150600001D06000054
:1000500051040000B9070000D9070000E1070000C3
:10006000DD050000E50500002D0600003506000056
:10007000BD050000C5050000A1070000A90700009C
:10008000B1070000D5050000C1070000C907000046
:10009000D1070000F5050000A508000025060000B6
:1000A00061010000FD050000950800009D080000AA
:1000B000ED050000CD050000E1040000490400004A
:1000C0000348854600F03AF80048004765090000FB
:1000D0001002002009480A4A002100A1814200D9EB
:1000E0000244084802600848804708480047FEE785
:1000F000FEE7FEE7FEE7FEE7FEE700000000002067
:100100000000000008ED00E099070000C1000000B9
:1001100030B50B46014600202022012409E00D469F
:10012000D5409D4205D31D469540491B2546954027
:1001300040191546521E002DF1DC30BD064C01253C
:10014000064E05E0E36807CC2B430C3C984710347F
:10015000B442F7D3FFF7B8FF7C0B00009C0B000004
:1001600080B500F04DF880BD03280CD8134AC04676
:10017000784400794000874401080F161F23194076
:100180001068984315E0042070471F204301106851
:100190009843C906890D0CE01F208302106898431C
:1001A000C906490C05E01F20C30310689843C9061F
:1001B000090B0143116000207047C0464C240040E9
:1001C00002490A6882430A607047C046B42400406E
:1001D0000120C00330490A6802430A607047C046E4
:1001E000034909680140481E814108467047C046DE
:1001F000B0240040800001494058704790240040DE
:1002000080B52020FFF7ECFF01280DD12020FFF75B
:10021000D7FF0120FFF7EEFF04490860096804A03A
:1002200000F0D4FB00F03EF880BDC046080000207E
:100230000D0A2044617461313131203D2025642054
:100240000D0A000070B5002824D00446124D012686
:100250002E60022000F034FB6068E16801432069F1
:100260000843A16801436069084329680143296084
:100270002068B1026A688A43C007400D10186860A0
:10028000A069696804229143C007400F081868609C
:10029000002070BD042070BD0424004003480121EB
:1002A000016070470148002101607047C824004088
:1002B00010B50421002817D00278042A14D84278F7
:1002C00001210B0209490C689C43D207D20D121977
:1002D0000A600078032212054B6C9343401E80078E
:1002E000800AC01848640021084610BD0824004058
:1002F000B0B588B001AC1C21204600F0D7FA102020
:100300000125294600F038FA00F092F80020079005
:10031000069005900321490204916903039102901C
:1003200001952046FFF78EFF08B0B0BDBCB501AC0B
:1003300002252046294600F0B9FA042020802046F4
:10034000FFF7B6FF08212846FFF70EFFFFF740FF33
:1003500018200321012200F07FF8FFF79FFFBCBDAA
:1003600080B51C20012100F007FA4020002100F098
:1003700009F980BDF0B589B003AC1821204600F022
:1003800095FA68460C2100F091FA01252846294685
:1003900000F0F2F900260596C02003904B20C00122
:1003A000089004966802069000F0DAF907900B4F67
:1003B0003846214600F028FA3846314600F014FA53
:1003C0003846294600F010FA1121384600F014FA98
:1003D0001021384600F010FA09B0F0BD00010040CD
:1003E000F0B587B001AC1821204600F05FFA1C2060
:1003F0000125294600F0C0F9002601960227304663
:100400003946224600F078F8304639462A4600F050
:10041000B1F80195032730463946224600F06CF8C2
:10042000304639462A4600F0A5F807B0F0BD000076
:1004300080B50448016801220A430260022000F0EE
:100440003FFA80BD0024004080B5C046C04680BD54
:1004500080B5C046C04680BDB0B500280BD41F2370
:10046000034001249C401A4B1C60032304469C4318
:10047000184BE31806E00F230340083B0324A34373
:10048000124C1B198407E40E8907090EA140FF25B1
:10049000A5401C68AC430C431C60012A08D100280D
:1004A00012D41F210840012181400C480160B0BDD9
:1004B000002809D41F21084001218140064801601D
:1004C000BFF34F8FBFF36F8FB0BDC0461CED00E090
:1004D00080E200E000E400E080E100E000E100E014
:1004E00080B5C046C046C046C04680BD0268CA400E
:1004F0000120104070470000FEB515460E460190E1
:100500001949471838460C300024314622460294D7
:10051000164B9847B00001990818194944502A7899
:1005200038463146114CA04738461C302A793146AE
:10053000A047384620302A7A3146A0473846243032
:100540002A7B3146A0472C372A7C38463146A047C3
:1005500068690121C903064A13688B43C00380B24E
:10056000181810600298FEBD000D02403D06000004
:10057000080F02408900401801494250002070478E
:10058000000C024080B5034A8018012200F056F8A2
:10059000002080BD0C0D024080B5034A8018012266
:1005A00000F04CF8002080BD100D024081B000200A
:1005B000009000980028FCD001B0704780B5C0467C
:1005C000C04680BD80B5C046C04680BD80B5C0462F
:1005D000C04680BD80B5C046C04680BD80B5C0461F
:1005E000C04680BD80B5C046C04680BD80B5C0460F
:1005F000C04680BD80B5C046C04680BD80B5C046FF
:10060000C04680BD80B5C046C04680BD80B5C046EE
:10061000C04680BD80B5C046C04680BD80B5C046DE
:10062000C04680BD80B5C046C04680BD80B5C046CE
:10063000C04680BD80B5C046C04680BD01238B400A
:10064000012A02D10168194301E001689943016060
:10065000704780B5C046C04680BD0000FCB5364836
:100660000688458881880191C488078C334A1146E1
:100670000C3908680006430F042B0FD8009430484B
:100680007B441B795B009F4402520B1013001368DC
:100690002C480340B34218D12B4848E0002046E0E4
:1006A00090682E4A0240BA4215D00120C0033EE0B5
:1006B000136B03241C40032C074634D113682148D4
:1006C0000340B3420AD1204F2DE013680340AB42F0
:1006D0000AD11E482BE04B20400228E0136803405B
:1006E000AB4208D1194F1EE013680340019CA3429E
:1006F00008D117481BE013680340019CA34208D1AE
:10070000134F10E0126802400098824208D012484D
:100710000DE0136803400098834203D00E4F02E0BF
:100720000C4804E00B4F106BC005000F78430968BC
:100730004905490FC840FCBD000C10000C200040CA
:100740000048E801FF07000000366E0140865101B5
:100750000024F40000127A0000093D00FF030000AD
:1007600080B5FFF77BFF03490968C904890FC840BA
:1007700080BDC0460020004080B50A4601460248C0
:10078000FFF75CFF002080BD2020004080B5FFF710
:1007900065FF6E49086080BD80B5FFF7F7FF80BD3B
:1007A00080B5C046C04680BD80B5C046C04680BD4D
:1007B00080B5C046C04680BD80B5C046C04680BD3D
:1007C00080B5C046C04680BD80B5C046C04680BD2D
:1007D00080B5C046C04680BD80B5C046C04680BD1D
:1007E00080B5C046C04680BD10B5143000242246F6
:1007F000FFF724FF204610BD80B5001D0122FFF742
:100800001DFF002080BD000070B500291ED00546E8
:10081000002444604DC91343334303436B601039D4
:10082000086880220243C02A11D1C868400A8000AB
:1008300008A2105A4A69824008691146FFF768FC0D
:10084000A86104212846FFF7D7FF00E004242046D2
:1008500070BDC046040000000300000070B50E46E5
:1008600004460546103503212846FFF73FFE0028C1
:10087000F9D02068FF218843801920600121284693
:10088000FFF734FE0028F9D001212046FFF7ACFF26
:10089000002070BD80B5C046C04680BD80B5C04652
:1008A000C04680BD80B5C046C04680BD002806D089
:1008B000002904D000220270401C491EF8E770474E
:1008C000F8B504461F4E204870600027B760052029
:1008D00030600B4D002C0DD0641EB7601B480068C3
:1008E0002946FFF715FC1849081A401CB1688142D7
:1008F000FCD8EFE73068012188433060F8BDC0467E
:10090000A0860100F8B504460E4D0F486860002728
:10091000AF60052028600D4E002C0DD0641EAF6026
:100920007D20C1003068FFF7F3FB0749081A401C1F
:10093000A9688142FCD8EFE7286801218843286034
:10094000F8BDC04610E000E0FFFFFF0004000020FB
:1009500010B5044602482146FFF780FF204610BD2F
:100960000001004086B01C2001242146FFF704FF4F
:10097000039400200290009040240225204629463E
:10098000FFF70AFE6A4620462946FFF7B5FD2046D6
:100990002946FFF701FEFFF723FDFFF7EBFCFFF70A
:1009A000DFFCFFF7A5FCFFF7C1FC05A4204600F023
:1009B000D5F87D200001FFF7A5FFFFF76FFCF5E7F5
:1009C0000D0A20414443446174610D000FB410B519
:1009D00003A9044B044A029800F018F810BC08BCA4
:1009E00004B01847510900000000002002E008C8C8
:1009F000121F08C1002AFAD170477047002001E099
:100A000001C1121F002AFBD170470000FFB58DB055
:100A10000446002506E025280AD0109A0F99904731
:100A2000641C6D1C20780028F5D1284611B0F0BD5B
:100A300000270121484A009700E00743641C2378FF
:100A40000846203B98401042F7D120782E2817D135
:100A5000042007436078641C2A280CD10E98641C7B
:100A600002C800910E900BE000990A2251433039E0
:100A70004018641C00902078014630390929F3D9C8
:100A800020780028D1D0642808D0692806D075289D
:100A90001ED0109A0F9990476D1C5BE00A200E99AA
:100AA000019001C90E91002802DA40422D2102E096
:100AB000390504D52B216A461172012103E0F9079B
:100AC00004D02021F7E70BAE0B910DE00021FAE7EF
:100AD0000A200E99019001C90E91F7E70199FFF7DD
:100AE00017FB3031761E31700028F7D103A8801B28
:100AF00020300190780701D5009801E00120009096
:100B00000199884201DD401A00E000200027009092
:100B100006E002A8109AC05D0F9990476D1C7F1CDB
:100B20000B988742F5DB04E0109A30200F9990472C
:100B30006D1C0099481E00900029F5DC05E0307816
:100B4000109A761C0F9990476D1C0199481E0190D0
:100B50000029F4DC641C65E70928010010B504468F
:100B600001E0FFF7F5FE2078641C03490028F8D166
:100B70000A20FFF7EDFE10BD00000020A00B0000D2
:100B80000000002008000000EC090000A80B000095
:100B90000800002008020000FC090000000000001E
:080BA0000000000000093D0007
:04000005000000C136
:00000001FF
